{"abi":[{"type":"function","name":"addProposal","inputs":[{"name":"_pollId","type":"uint256","internalType":"uint256"},{"name":"_description","type":"string","internalType":"string"}],"outputs":[],"stateMutability":"nonpayable"},{"type":"function","name":"addressIsDelegate","inputs":[{"name":"_groupId","type":"uint256","internalType":"uint256"},{"name":"_potentialDelegate","type":"address","internalType":"address"}],"outputs":[{"name":"isDelegate","type":"bool","internalType":"bool"}],"stateMutability":"view"},{"type":"function","name":"becomeDelegate","inputs":[{"name":"_groupId","type":"uint256","internalType":"uint256"}],"outputs":[],"stateMutability":"nonpayable"},{"type":"function","name":"becomeMemberOfGroup","inputs":[{"name":"_group","type":"uint256","internalType":"uint256"}],"outputs":[],"stateMutability":"nonpayable"},{"type":"function","name":"bridgeContract","inputs":[],"outputs":[{"name":"","type":"address","internalType":"address"}],"stateMutability":"view"},{"type":"function","name":"castVote","inputs":[{"name":"_pollId","type":"uint256","internalType":"uint256"},{"name":"_proposalId","type":"uint256","internalType":"uint256"}],"outputs":[],"stateMutability":"nonpayable"},{"type":"function","name":"castVoteMeta","inputs":[{"name":"_pollId","type":"uint256","internalType":"uint256"},{"name":"_proposalId","type":"uint256","internalType":"uint256"},{"name":"_score","type":"uint8","internalType":"uint8"},{"name":"_voter","type":"address","internalType":"address"},{"name":"_group","type":"uint256","internalType":"uint256"}],"outputs":[],"stateMutability":"nonpayable"},{"type":"function","name":"createPoll","inputs":[{"name":"_title","type":"string","internalType":"string"},{"name":"_tag","type":"string","internalType":"string"},{"name":"_group","type":"uint256","internalType":"uint256"},{"name":"_pollStartDate","type":"uint256","internalType":"uint256"},{"name":"_proposalEndDate","type":"uint256","internalType":"uint256"},{"name":"_votingStartDate","type":"uint256","internalType":"uint256"},{"name":"_delegateEndDate","type":"uint256","internalType":"uint256"},{"name":"_endDate","type":"uint256","internalType":"uint256"},{"name":"_maxVoteScore","type":"uint8","internalType":"uint8"},{"name":"_storeOnEthereum","type":"bool","internalType":"bool"}],"outputs":[],"stateMutability":"nonpayable"},{"type":"function","name":"createPrediction","inputs":[{"name":"_pollId","type":"uint256","internalType":"uint256"},{"name":"_proposalId","type":"uint256","internalType":"uint256"},{"name":"_prediction","type":"string","internalType":"string"}],"outputs":[],"stateMutability":"nonpayable"},{"type":"function","name":"delegateToDelegate","inputs":[{"name":"_delegate","type":"address","internalType":"address"},{"name":"_groupId","type":"uint256","internalType":"uint256"}],"outputs":[],"stateMutability":"nonpayable"},{"type":"function","name":"finalizeAndBridge","inputs":[{"name":"_pollId","type":"uint256","internalType":"uint256"}],"outputs":[],"stateMutability":"nonpayable"},{"type":"function","name":"finalizePoll","inputs":[{"name":"_pollId","type":"uint256","internalType":"uint256"}],"outputs":[],"stateMutability":"nonpayable"},{"type":"function","name":"getDelegateCount","inputs":[{"name":"_groupId","type":"uint256","internalType":"uint256"}],"outputs":[{"name":"","type":"uint256","internalType":"uint256"}],"stateMutability":"view"},{"type":"function","name":"getDelegateVoteCount","inputs":[{"name":"_groupId","type":"uint256","internalType":"uint256"},{"name":"_delegate","type":"address","internalType":"address"}],"outputs":[{"name":"","type":"uint256","internalType":"uint256"}],"stateMutability":"view"},{"type":"function","name":"getGroupsAddressIsMemberIn","inputs":[{"name":"_user","type":"address","internalType":"address"}],"outputs":[{"name":"","type":"uint256[]","internalType":"uint256[]"}],"stateMutability":"view"},{"type":"function","name":"getGroupsUserIsMemberIn","inputs":[],"outputs":[{"name":"","type":"uint256[]","internalType":"uint256[]"}],"stateMutability":"view"},{"type":"function","name":"getPoll","inputs":[{"name":"_pollId","type":"uint256","internalType":"uint256"}],"outputs":[{"name":"","type":"tuple","internalType":"struct PollHelpers.Poll","components":[{"name":"details","type":"tuple","internalType":"struct PollHelpers.PollDetails","components":[{"name":"title","type":"string","internalType":"string"},{"name":"tag","type":"string","internalType":"string"},{"name":"group","type":"uint256","internalType":"uint256"},{"name":"pollStartDate","type":"uint256","internalType":"uint256"},{"name":"proposalEndDate","type":"uint256","internalType":"uint256"},{"name":"votingStartDate","type":"uint256","internalType":"uint256"},{"name":"delegateEndDate","type":"uint256","internalType":"uint256"},{"name":"endDate","type":"uint256","internalType":"uint256"}]},{"name":"settings","type":"tuple","internalType":"struct PollHelpers.PollSettings","components":[{"name":"maxVoteScore","type":"uint8","internalType":"uint8"},{"name":"storeOnEthereum","type":"bool","internalType":"bool"},{"name":"finalized","type":"bool","internalType":"bool"},{"name":"resultHash","type":"bytes32","internalType":"bytes32"}]},{"name":"pollId","type":"uint256","internalType":"uint256"},{"name":"proposalCount","type":"uint256","internalType":"uint256"}]}],"stateMutability":"view"},{"type":"function","name":"getPollResults","inputs":[{"name":"_pollId","type":"uint256","internalType":"uint256"}],"outputs":[{"name":"proposalDescriptions","type":"string[]","internalType":"string[]"},{"name":"voteCounts","type":"uint256[]","internalType":"uint256[]"},{"name":"scores","type":"uint256[]","internalType":"uint256[]"}],"stateMutability":"view"},{"type":"function","name":"getPredictionBets","inputs":[{"name":"_pollId","type":"uint256","internalType":"uint256"},{"name":"_proposalId","type":"uint256","internalType":"uint256"},{"name":"_predictionId","type":"uint256","internalType":"uint256"}],"outputs":[{"name":"","type":"tuple[]","internalType":"struct PredictionBetHelpers.PredictionBet[]","components":[{"name":"pollId","type":"uint256","internalType":"uint256"},{"name":"proposalId","type":"uint256","internalType":"uint256"},{"name":"predictionId","type":"uint256","internalType":"uint256"},{"name":"bet","type":"bool","internalType":"bool"},{"name":"likelihood","type":"uint256","internalType":"uint256"}]}],"stateMutability":"view"},{"type":"function","name":"getPredictions","inputs":[{"name":"_pollId","type":"uint256","internalType":"uint256"},{"name":"_proposalId","type":"uint256","internalType":"uint256"}],"outputs":[{"name":"","type":"tuple[]","internalType":"struct PredictionHelpers.Prediction[]","components":[{"name":"pollId","type":"uint256","internalType":"uint256"},{"name":"proposalId","type":"uint256","internalType":"uint256"},{"name":"predictionId","type":"uint256","internalType":"uint256"},{"name":"prediction","type":"string","internalType":"string"}]}],"stateMutability":"view"},{"type":"function","name":"getProposal","inputs":[{"name":"_pollId","type":"uint256","internalType":"uint256"},{"name":"_proposalId","type":"uint256","internalType":"uint256"}],"outputs":[{"name":"","type":"tuple","internalType":"struct ProposalHelpers.Proposal","components":[{"name":"description","type":"string","internalType":"string"},{"name":"voteCount","type":"uint256","internalType":"uint256"},{"name":"proposalId","type":"uint256","internalType":"uint256"},{"name":"predictionCount","type":"uint256","internalType":"uint256"},{"name":"score","type":"uint256","internalType":"uint256"},{"name":"totalScore","type":"uint256","internalType":"uint256"},{"name":"creator","type":"address","internalType":"address"}]}],"stateMutability":"view"},{"type":"function","name":"getProposals","inputs":[{"name":"_pollId","type":"uint256","internalType":"uint256"}],"outputs":[{"name":"","type":"tuple[]","internalType":"struct ProposalHelpers.Proposal[]","components":[{"name":"description","type":"string","internalType":"string"},{"name":"voteCount","type":"uint256","internalType":"uint256"},{"name":"proposalId","type":"uint256","internalType":"uint256"},{"name":"predictionCount","type":"uint256","internalType":"uint256"},{"name":"score","type":"uint256","internalType":"uint256"},{"name":"totalScore","type":"uint256","internalType":"uint256"},{"name":"creator","type":"address","internalType":"address"}]}],"stateMutability":"view"},{"type":"function","name":"getResult","inputs":[{"name":"_pollId","type":"uint256","internalType":"uint256"}],"outputs":[{"name":"","type":"bytes32","internalType":"bytes32"}],"stateMutability":"view"},{"type":"function","name":"groupDelegates","inputs":[{"name":"","type":"uint256","internalType":"uint256"},{"name":"","type":"uint256","internalType":"uint256"}],"outputs":[{"name":"delegate","type":"address","internalType":"address"},{"name":"groupId","type":"uint256","internalType":"uint256"},{"name":"delegatedVotes","type":"uint256","internalType":"uint256"},{"name":"groupDelegateId","type":"uint256","internalType":"uint256"}],"stateMutability":"view"},{"type":"function","name":"hasDelegatedInGroup","inputs":[{"name":"_groupId","type":"uint256","internalType":"uint256"}],"outputs":[{"name":"","type":"bool","internalType":"bool"}],"stateMutability":"view"},{"type":"function","name":"hasDelegatedToDelegateInGroup","inputs":[{"name":"_groupId","type":"uint256","internalType":"uint256"},{"name":"_delegate","type":"address","internalType":"address"}],"outputs":[{"name":"","type":"bool","internalType":"bool"}],"stateMutability":"view"},{"type":"function","name":"hasUserVoted","inputs":[{"name":"_pollId","type":"uint256","internalType":"uint256"},{"name":"_user","type":"address","internalType":"address"}],"outputs":[{"name":"","type":"bool","internalType":"bool"}],"stateMutability":"view"},{"type":"function","name":"hasUserVotedAsDelegate","inputs":[{"name":"_pollId","type":"uint256","internalType":"uint256"},{"name":"_user","type":"address","internalType":"address"}],"outputs":[{"name":"","type":"bool","internalType":"bool"}],"stateMutability":"view"},{"type":"function","name":"isAddressMemberOfGroup","inputs":[{"name":"_user","type":"address","internalType":"address"},{"name":"_group","type":"uint256","internalType":"uint256"}],"outputs":[{"name":"isMember","type":"bool","internalType":"bool"}],"stateMutability":"view"},{"type":"function","name":"isUserMemberOfGroup","inputs":[{"name":"_group","type":"uint256","internalType":"uint256"}],"outputs":[{"name":"isMember","type":"bool","internalType":"bool"}],"stateMutability":"view"},{"type":"function","name":"metaTxHandler","inputs":[],"outputs":[{"name":"","type":"address","internalType":"address"}],"stateMutability":"view"},{"type":"function","name":"metaVoting","inputs":[],"outputs":[{"name":"","type":"address","internalType":"address"}],"stateMutability":"view"},{"type":"function","name":"owner","inputs":[],"outputs":[{"name":"","type":"address","internalType":"address"}],"stateMutability":"view"},{"type":"function","name":"placePredictionBet","inputs":[{"name":"_pollId","type":"uint256","internalType":"uint256"},{"name":"_proposalId","type":"uint256","internalType":"uint256"},{"name":"_predictionId","type":"uint256","internalType":"uint256"},{"name":"_likelihood","type":"uint256","internalType":"uint256"},{"name":"_bet","type":"bool","internalType":"bool"}],"outputs":[],"stateMutability":"nonpayable"},{"type":"function","name":"pollCount","inputs":[],"outputs":[{"name":"","type":"uint256","internalType":"uint256"}],"stateMutability":"view"},{"type":"function","name":"pollSettings","inputs":[{"name":"","type":"uint256","internalType":"uint256"}],"outputs":[{"name":"maxVoteScore","type":"uint8","internalType":"uint8"},{"name":"storeOnEthereum","type":"bool","internalType":"bool"},{"name":"finalized","type":"bool","internalType":"bool"},{"name":"resultHash","type":"bytes32","internalType":"bytes32"}],"stateMutability":"view"},{"type":"function","name":"polls","inputs":[{"name":"","type":"uint256","internalType":"uint256"}],"outputs":[{"name":"details","type":"tuple","internalType":"struct PollHelpers.PollDetails","components":[{"name":"title","type":"string","internalType":"string"},{"name":"tag","type":"string","internalType":"string"},{"name":"group","type":"uint256","internalType":"uint256"},{"name":"pollStartDate","type":"uint256","internalType":"uint256"},{"name":"proposalEndDate","type":"uint256","internalType":"uint256"},{"name":"votingStartDate","type":"uint256","internalType":"uint256"},{"name":"delegateEndDate","type":"uint256","internalType":"uint256"},{"name":"endDate","type":"uint256","internalType":"uint256"}]},{"name":"settings","type":"tuple","internalType":"struct PollHelpers.PollSettings","components":[{"name":"maxVoteScore","type":"uint8","internalType":"uint8"},{"name":"storeOnEthereum","type":"bool","internalType":"bool"},{"name":"finalized","type":"bool","internalType":"bool"},{"name":"resultHash","type":"bytes32","internalType":"bytes32"}]},{"name":"pollId","type":"uint256","internalType":"uint256"},{"name":"proposalCount","type":"uint256","internalType":"uint256"}],"stateMutability":"view"},{"type":"function","name":"predictionBets","inputs":[{"name":"","type":"uint256","internalType":"uint256"},{"name":"","type":"uint256","internalType":"uint256"},{"name":"","type":"uint256","internalType":"uint256"}],"outputs":[{"name":"pollId","type":"uint256","internalType":"uint256"},{"name":"proposalId","type":"uint256","internalType":"uint256"},{"name":"predictionId","type":"uint256","internalType":"uint256"},{"name":"bet","type":"bool","internalType":"bool"},{"name":"likelihood","type":"uint256","internalType":"uint256"}],"stateMutability":"view"},{"type":"function","name":"predictions","inputs":[{"name":"","type":"uint256","internalType":"uint256"},{"name":"","type":"uint256","internalType":"uint256"}],"outputs":[{"name":"pollId","type":"uint256","internalType":"uint256"},{"name":"proposalId","type":"uint256","internalType":"uint256"},{"name":"predictionId","type":"uint256","internalType":"uint256"},{"name":"prediction","type":"string","internalType":"string"}],"stateMutability":"view"},{"type":"function","name":"proposalCount","inputs":[{"name":"","type":"uint256","internalType":"uint256"}],"outputs":[{"name":"","type":"uint256","internalType":"uint256"}],"stateMutability":"view"},{"type":"function","name":"proposals","inputs":[{"name":"","type":"uint256","internalType":"uint256"},{"name":"","type":"uint256","internalType":"uint256"}],"outputs":[{"name":"description","type":"string","internalType":"string"},{"name":"voteCount","type":"uint256","internalType":"uint256"},{"name":"proposalId","type":"uint256","internalType":"uint256"},{"name":"predictionCount","type":"uint256","internalType":"uint256"},{"name":"score","type":"uint256","internalType":"uint256"},{"name":"totalScore","type":"uint256","internalType":"uint256"},{"name":"creator","type":"address","internalType":"address"}],"stateMutability":"view"},{"type":"function","name":"publicControlProposalEndDate","inputs":[{"name":"_pollId","type":"uint256","internalType":"uint256"}],"outputs":[],"stateMutability":"view"},{"type":"function","name":"publicIsVotingOpen","inputs":[{"name":"_pollId","type":"uint256","internalType":"uint256"}],"outputs":[],"stateMutability":"view"},{"type":"function","name":"publicRequireMaxVoteScoreWithinRange","inputs":[{"name":"score","type":"uint8","internalType":"uint8"}],"outputs":[],"stateMutability":"pure"},{"type":"function","name":"publicRequireVoterScoreWithinRange","inputs":[{"name":"score","type":"uint8","internalType":"uint8"},{"name":"pollId","type":"uint256","internalType":"uint256"}],"outputs":[],"stateMutability":"view"},{"type":"function","name":"recordMetaVote","inputs":[{"name":"_pollId","type":"uint256","internalType":"uint256"},{"name":"_proposalId","type":"uint256","internalType":"uint256"},{"name":"voter","type":"address","internalType":"address"}],"outputs":[],"stateMutability":"nonpayable"},{"type":"function","name":"removeDelegation","inputs":[{"name":"_delegate","type":"address","internalType":"address"},{"name":"_groupId","type":"uint256","internalType":"uint256"}],"outputs":[],"stateMutability":"nonpayable"},{"type":"function","name":"removeGroupMembership","inputs":[{"name":"_group","type":"uint256","internalType":"uint256"}],"outputs":[],"stateMutability":"nonpayable"},{"type":"function","name":"renounceOwnership","inputs":[],"outputs":[],"stateMutability":"nonpayable"},{"type":"function","name":"resignAsDelegate","inputs":[{"name":"_groupId","type":"uint256","internalType":"uint256"}],"outputs":[],"stateMutability":"nonpayable"},{"type":"function","name":"setBridgeContract","inputs":[{"name":"_bridgeContract","type":"address","internalType":"address"}],"outputs":[],"stateMutability":"nonpayable"},{"type":"function","name":"setMetaTxHandler","inputs":[{"name":"_metaTxHandler","type":"address","internalType":"address"}],"outputs":[],"stateMutability":"nonpayable"},{"type":"function","name":"setMetaVoting","inputs":[{"name":"_metaVoting","type":"address","internalType":"address"}],"outputs":[],"stateMutability":"nonpayable"},{"type":"function","name":"transferOwnership","inputs":[{"name":"newOwner","type":"address","internalType":"address"}],"outputs":[],"stateMutability":"nonpayable"},{"type":"function","name":"updateProposalVotes","inputs":[{"name":"_pollId","type":"uint256","internalType":"uint256"},{"name":"_proposalId","type":"uint256","internalType":"uint256"},{"name":"voteIncrease","type":"uint256","internalType":"uint256"},{"name":"scoreIncrease","type":"uint256","internalType":"uint256"}],"outputs":[],"stateMutability":"nonpayable"},{"type":"function","name":"userVotes","inputs":[{"name":"","type":"uint256","internalType":"uint256"},{"name":"","type":"address","internalType":"address"},{"name":"","type":"uint256","internalType":"uint256"}],"outputs":[{"name":"","type":"uint256","internalType":"uint256"}],"stateMutability":"view"},{"type":"function","name":"vote","inputs":[{"name":"_pollId","type":"uint256","internalType":"uint256"},{"name":"_proposalId","type":"uint256","internalType":"uint256"},{"name":"_score","type":"uint8","internalType":"uint8"},{"name":"_group","type":"uint256","internalType":"uint256"}],"outputs":[],"stateMutability":"nonpayable"},{"type":"function","name":"voteAsDelegate","inputs":[{"name":"_pollId","type":"uint256","internalType":"uint256"},{"name":"_proposalId","type":"uint256","internalType":"uint256"},{"name":"_score","type":"uint8","internalType":"uint8"},{"name":"delegate","type":"address","internalType":"address"}],"outputs":[],"stateMutability":"nonpayable"},{"type":"event","name":"DelegateResignation","inputs":[{"name":"delegate","type":"address","indexed":true,"internalType":"address"},{"name":"groupId","type":"uint256","indexed":true,"internalType":"uint256"}],"anonymous":false},{"type":"event","name":"DelegateVoteCast","inputs":[{"name":"delegateVoter","type":"address","indexed":true,"internalType":"address"},{"name":"pollId","type":"uint256","indexed":true,"internalType":"uint256"}],"anonymous":false},{"type":"event","name":"DelegationRemoved","inputs":[{"name":"user","type":"address","indexed":true,"internalType":"address"},{"name":"delegate","type":"address","indexed":true,"internalType":"address"},{"name":"groupId","type":"uint256","indexed":true,"internalType":"uint256"}],"anonymous":false},{"type":"event","name":"GroupMembershipChanged","inputs":[{"name":"user","type":"address","indexed":true,"internalType":"address"},{"name":"group","type":"uint256","indexed":true,"internalType":"uint256"},{"name":"isMember","type":"bool","indexed":false,"internalType":"bool"}],"anonymous":false},{"type":"event","name":"IndividualVotes","inputs":[{"name":"pollId","type":"uint256","indexed":true,"internalType":"uint256"},{"name":"proposalId","type":"uint256","indexed":true,"internalType":"uint256"},{"name":"voter","type":"address","indexed":false,"internalType":"address"},{"name":"score","type":"uint256","indexed":false,"internalType":"uint256"}],"anonymous":false},{"type":"event","name":"NewDelegate","inputs":[{"name":"delegate","type":"address","indexed":true,"internalType":"address"},{"name":"groupId","type":"uint256","indexed":true,"internalType":"uint256"},{"name":"delegatedVotes","type":"uint256","indexed":false,"internalType":"uint256"},{"name":"delegationsFrom","type":"address[]","indexed":false,"internalType":"address[]"},{"name":"groupDelegateId","type":"uint256","indexed":true,"internalType":"uint256"}],"anonymous":false},{"type":"event","name":"NewDelegation","inputs":[{"name":"from","type":"address","indexed":true,"internalType":"address"},{"name":"to","type":"address","indexed":true,"internalType":"address"},{"name":"groupId","type":"uint256","indexed":true,"internalType":"uint256"},{"name":"delegatedVotes","type":"uint256","indexed":false,"internalType":"uint256"},{"name":"delegationsFrom","type":"address[]","indexed":false,"internalType":"address[]"}],"anonymous":false},{"type":"event","name":"OwnershipTransferred","inputs":[{"name":"previousOwner","type":"address","indexed":true,"internalType":"address"},{"name":"newOwner","type":"address","indexed":true,"internalType":"address"}],"anonymous":false},{"type":"event","name":"PollBridgedToEthereum","inputs":[{"name":"pollId","type":"uint256","indexed":true,"internalType":"uint256"},{"name":"resultHash","type":"bytes32","indexed":false,"internalType":"bytes32"}],"anonymous":false},{"type":"event","name":"PollCreated","inputs":[{"name":"pollId","type":"uint256","indexed":true,"internalType":"uint256"},{"name":"title","type":"string","indexed":false,"internalType":"string"},{"name":"storeOnEthereum","type":"bool","indexed":false,"internalType":"bool"}],"anonymous":false},{"type":"event","name":"PollFinalized","inputs":[{"name":"pollId","type":"uint256","indexed":true,"internalType":"uint256"},{"name":"resultHash","type":"bytes32","indexed":false,"internalType":"bytes32"},{"name":"storedOnEthereum","type":"bool","indexed":false,"internalType":"bool"}],"anonymous":false},{"type":"event","name":"PredictionBetCreated","inputs":[{"name":"predictionId","type":"uint256","indexed":true,"internalType":"uint256"},{"name":"bet","type":"bool","indexed":false,"internalType":"bool"},{"name":"likelihood","type":"uint256","indexed":false,"internalType":"uint256"}],"anonymous":false},{"type":"event","name":"PredictionCreated","inputs":[{"name":"pollId","type":"uint256","indexed":true,"internalType":"uint256"},{"name":"proposalId","type":"uint256","indexed":true,"internalType":"uint256"},{"name":"predictionId","type":"uint256","indexed":true,"internalType":"uint256"},{"name":"prediction","type":"string","indexed":false,"internalType":"string"}],"anonymous":false},{"type":"event","name":"ProposalAdded","inputs":[{"name":"pollId","type":"uint256","indexed":true,"internalType":"uint256"},{"name":"proposalId","type":"uint256","indexed":true,"internalType":"uint256"},{"name":"description","type":"string","indexed":false,"internalType":"string"}],"anonymous":false},{"type":"event","name":"ProposalUpdated","inputs":[{"name":"pollId","type":"uint256","indexed":false,"internalType":"uint256"},{"name":"proposalId","type":"uint256","indexed":false,"internalType":"uint256"},{"name":"newVoteCount","type":"uint256","indexed":false,"internalType":"uint256"},{"name":"newScore","type":"uint256","indexed":false,"internalType":"uint256"}],"anonymous":false},{"type":"event","name":"ProposalVotes","inputs":[{"name":"pollId","type":"uint256","indexed":true,"internalType":"uint256"},{"name":"proposalId","type":"uint256","indexed":true,"internalType":"uint256"},{"name":"voteCount","type":"uint256","indexed":false,"internalType":"uint256"},{"name":"totalScore","type":"uint256","indexed":false,"internalType":"uint256"}],"anonymous":false},{"type":"event","name":"VoteCast","inputs":[{"name":"voter","type":"address","indexed":true,"internalType":"address"},{"name":"pollId","type":"uint256","indexed":true,"internalType":"uint256"},{"name":"proposalId","type":"uint256","indexed":true,"internalType":"uint256"}],"anonymous":false},{"type":"event","name":"VoteSubmitted","inputs":[{"name":"pollId","type":"uint256","indexed":true,"internalType":"uint256"},{"name":"voter","type":"address","indexed":true,"internalType":"address"},{"name":"votesForProposal","type":"uint256","indexed":false,"internalType":"uint256"}],"anonymous":false},{"type":"error","name":"D_AlreadyDelegate","inputs":[{"name":"groupId","type":"uint256","internalType":"uint256"},{"name":"delegate","type":"address","internalType":"address"}]},{"type":"error","name":"D_NoDelegationToRemove","inputs":[{"name":"groupId","type":"uint256","internalType":"uint256"},{"name":"user","type":"address","internalType":"address"},{"name":"delegate","type":"address","internalType":"address"}]},{"type":"error","name":"D_NotADelegate","inputs":[{"name":"groupId","type":"uint256","internalType":"uint256"},{"name":"potentialDelegate","type":"address","internalType":"address"}]},{"type":"error","name":"D_NotGroupMember","inputs":[{"name":"groupId","type":"uint256","internalType":"uint256"},{"name":"user","type":"address","internalType":"address"}]},{"type":"error","name":"PB_InvalidLikelihood","inputs":[{"name":"likelihood","type":"uint256","internalType":"uint256"}]},{"type":"error","name":"PH_MaxVoteScoreOutOfRange","inputs":[{"name":"providedScore","type":"uint8","internalType":"uint8"}]},{"type":"error","name":"PH_PollDoesNotExist","inputs":[{"name":"pollId","type":"uint256","internalType":"uint256"}]},{"type":"error","name":"PH_ProposalPhaseEnded","inputs":[{"name":"pollId","type":"uint256","internalType":"uint256"},{"name":"proposalEndDate","type":"uint256","internalType":"uint256"},{"name":"currentTimestamp","type":"uint256","internalType":"uint256"}]},{"type":"error","name":"PH_VoteScoreExceedsMax","inputs":[{"name":"providedScore","type":"uint8","internalType":"uint8"},{"name":"maxScore","type":"uint8","internalType":"uint8"}]},{"type":"error","name":"PH_VotingNotAllowed","inputs":[{"name":"pollId","type":"uint256","internalType":"uint256"},{"name":"votingStartDate","type":"uint256","internalType":"uint256"},{"name":"endDate","type":"uint256","internalType":"uint256"},{"name":"currentTimestamp","type":"uint256","internalType":"uint256"}]},{"type":"error","name":"P_UnauthorizedMetaTx","inputs":[]},{"type":"error","name":"RTV_GroupNotFound","inputs":[{"name":"groupId","type":"uint256","internalType":"uint256"}]},{"type":"error","name":"SH_AlreadyMember","inputs":[{"name":"groupId","type":"uint256","internalType":"uint256"},{"name":"user","type":"address","internalType":"address"}]},{"type":"error","name":"SH_AlreadyVoted","inputs":[{"name":"pollId","type":"uint256","internalType":"uint256"},{"name":"voter","type":"address","internalType":"address"}]},{"type":"error","name":"SH_CannotDelegateToSelf","inputs":[{"name":"user","type":"address","internalType":"address"}]},{"type":"error","name":"SH_InvalidDelegation","inputs":[{"name":"groupId","type":"uint256","internalType":"uint256"},{"name":"delegate","type":"address","internalType":"address"}]},{"type":"error","name":"SH_NotMember","inputs":[{"name":"groupId","type":"uint256","internalType":"uint256"},{"name":"user","type":"address","internalType":"address"}]},{"type":"error","name":"SH_ProposalDoesNotExist","inputs":[{"name":"pollId","type":"uint256","internalType":"uint256"},{"name":"proposalId","type":"uint256","internalType":"uint256"}]}],"bytecode":{"object":"0x608080604052346100605760008054336001600160a01b0319821681178355916001600160a01b03909116907f8be0079c531659141344cd1fd0a4f28419497f9722a3daafe3b4186f6b6457e09080a3600060095561536990816100668239f35b600080fdfe6080604052600436101561001257600080fd5b600060e08135811c908163025ae4e214613ef05781630457bea814613b53578163051097ef1461387c5781630758efa5146138185781630b26cf66146137b45781630df06b3d146137015781630f4894c0146136cd57816315a4c269146131ec5781631a8cbcaa146130b057816321bcf082146130895781632926321c14612d215781632ae84eb014612b415781632c0a3f8914612a3d5781632c72fdfc146128995781633128fcb6146126ea57816333b4097b146124f3578163395e0139146122445781634b30ef3414611fe7578163548407b014611fb857816356597e4f14611d8e5781635fded4e114611d1c5781636bd53fbb14611cc2578163715018a614611c445781637c218cda14611c165781637c9627ec14611bec5781637dd90f7e14611bca57816384d7582c14611b665781638ad0871b14611b2f5781638da5cb5b14611afc5781639207891d14611ade57816392a0b3bd14611a89578163995e4339146119835781639bec02b11461183a578163aa7265cd146117b7578163aba2100914611788578163ac2f0074146116f0578163ac8ec2f91461167c578163af3157c014611338578163b0333e0d14611319578163b28bb34c1461129a578163b7e4eacf14611270578163bfc6c313146111cb578163c20572af1461102d578163c2cfee2714610f8f57508063c4b29d6714610f18578063c63f432e14610efb578063cd59658314610ec7578063cdd7a93814610c93578063d588748914610c62578063dc296ae114610c0d578063e424938c1461099e578063e7623bde146106d3578063e9628ed214610680578063edb1e27514610657578063f2fde38b1461053e578063f4b8cc421461050a578063fa822683146104b65763fd6c914e1461029e57600080fd5b346104b35760406003193601126104b3576102b76141d5565b602480356102c583826147d7565b15610461578084526002602081905260408520859473ffffffffffffffffffffffffffffffffffffffff908116949092865b835481101561045157868561030c8387614483565b505416146103225761031d9061451e565b6102f7565b965061032e8784614483565b500190815490811561043f5750600019019055855b61034d8683614483565b506003809101548210156104335783610372838361036b8b88614483565b50016145dc565b905490831b1c16331461038e57506103899061451e565b610343565b61036b819495969761039f94614483565b81939154921b1b191690555b6103b560016145f4565b33835260046020526040832091835b835481101561042a57826103d8828661465a565b5054146103ed576103e89061451e565b6103c4565b6103fc9061040292939461465a565b90614676565b337fbf340c6e47f6acc1fa5fcad9ef75c1e4bd8d91e7313667c3c9859f230fc7f8838480a480f35b50909150610402565b505050509091506103ab565b88634e487b7160e01b81526011600452fd5b505050505090916103b5906145f4565b73ffffffffffffffffffffffffffffffffffffffff83606493604051937fc2a69fca00000000000000000000000000000000000000000000000000000000855260048501523390840152166044820152fd5b80fd5b50346104b35760406003193601126104b35760ff604060209273ffffffffffffffffffffffffffffffffffffffff6104ec6141d5565b16815260018452818120602435825284522054166040519015158152f35b50346104b357806003193601126104b357602073ffffffffffffffffffffffffffffffffffffffff60055416604051908152f35b50346104b35760206003193601126104b3576105586141d5565b61056061449f565b73ffffffffffffffffffffffffffffffffffffffff8091169081156105d357600054827fffffffffffffffffffffffff0000000000000000000000000000000000000000821617600055167f8be0079c531659141344cd1fd0a4f28419497f9722a3daafe3b4186f6b6457e0600080a380f35b60846040517f08c379a000000000000000000000000000000000000000000000000000000000815260206004820152602660248201527f4f776e61626c653a206e6577206f776e657220697320746865207a65726f206160448201527f64647265737300000000000000000000000000000000000000000000000000006064820152fd5b50346104b35760806003193601126104b35761067d606435604435602435600435614f9a565b80f35b50346104b35760206003193601126104b35760406080916004358152600a602052206001815491015460ff604051928181168452818160081c161515602085015260101c16151560408301526060820152f35b50346104b3576020806003193601126108de57600435908183526006815260408320610704600a8201541515614abb565b6008810190815460ff8160101c16610940579181600993620100007fffffffffffffffffffffffffffffffffffffffffffffffffffffffffff00ffff600760ff9601549261075484421015614b20565b1617809355600b8201549061079d61076b89614dc2565b604080518a81018c8152602081019690965290850193909352606084015281608084015b03601f1981018352826140a5565b519020938491015560081c16837f0fc1ee95699e389b4bff56dd8901eca811b418078b0a6d6263245e5a8c6056556040805185815284151587820152a26107e2578380f35b73ffffffffffffffffffffffffffffffffffffffff6010541680156108e2578085913b156108de5781906044604051809481937f56a83ed00000000000000000000000000000000000000000000000000000000083528960048401528760248401525af180156108d357610883575b50907f406ea8ab21bbf93d484a45d4bb326782f25e7062c076332af7987499d40ca43991604051908152a23880808380f35b67ffffffffffffffff81959295116108bf57604052927f406ea8ab21bbf93d484a45d4bb326782f25e7062c076332af7987499d40ca439610851565b602482634e487b7160e01b81526041600452fd5b6040513d87823e3d90fd5b5080fd5b606483604051907f08c379a00000000000000000000000000000000000000000000000000000000082526004820152601760248201527f42726964676520636f6e7472616374206e6f74207365740000000000000000006044820152fd5b606484604051907f08c379a00000000000000000000000000000000000000000000000000000000082526004820152601660248201527f506f6c6c20616c72656164792066696e616c697a6564000000000000000000006044820152fd5b50346104b35760606003193601126104b35767ffffffffffffffff90600435602435604435848111610c09576109d89036906004016142a5565b916109e38282615097565b808452602092600c84526040852083865284526003604086200193610a08855461451e565b809555838652600e8152604086209660405190610a2482614035565b848252828201918683526040810188815260608201938685528b5468010000000000000000811015610bf557610a619060019d8e82018155613f7a565b939093610be257906003939291518355518c830155516002820155019151988951918211610bce57610a938354613fac565b601f8111610b95575b5083601f8311600114610b13578280918b9c7f6af78efafc89d3e75feff1be065bd08ff3ad271a352c26d0073e2b297e0335da999a9b9c93610b06575b505060001991921b9260031b1c19161790555b610b006040519282849384528301906141b0565b0390a480f35b0151915060001938610ad9565b601f198392931690848b52858b20918b5b818110610b8057509b837f6af78efafc89d3e75feff1be065bd08ff3ad271a352c26d0073e2b297e0335da999a9b9c9d10610b67575b505050811b019055610aec565b015160001960f88460031b161c19169055388080610b5a565b8d830151845592850192918701918701610b24565b610bbe90848b52858b20601f850160051c810191878610610bc4575b601f0160051c019061458c565b38610a9c565b9091508190610bb1565b602489634e487b7160e01b81526041600452fd5b60248c634e487b7160e01b815280600452fd5b60248c634e487b7160e01b81526041600452fd5b8380fd5b50346104b35760406003193601126104b35760ff6040602092610c2e61421b565b60043582526007855273ffffffffffffffffffffffffffffffffffffffff8383209116825284522054166040519015158152f35b50346104b35760406003193601126104b3576020610c89610c8161421b565b6004356147d7565b6040519015158152f35b50346104b35760806003193601126104b357602435600435610cb361423e565b9160ff610cbe6141f8565b93610cc884614966565b610cd28385615097565b1690610cdf8215156149f1565b73ffffffffffffffffffffffffffffffffffffffff80601154163303610eb5575b838652602092600884528160408820961695868852845260ff604088205416610e575784875260068452600291826040892001549288938952808652604089209189928054935b848110610e1e575b50505050508115610e15575b60ff8216029160ff8316928303610e0157827fa5876137634fc61be6a6224d5f4a2d0926145388c51a133c03cc00f7b66e0e3c949392610dba92878a52600b865260408a20898b52865260408a20818b5286528260408b205587614f9a565b838652600882526040862085875282526040862060017fffffffffffffffffffffffffffffffffffffffffffffffffffffffffffffff00825416179055604051908152a380f35b602487634e487b7160e01b81526011600452fd5b60019150610d5b565b610e288183614483565b50338482541614610e425750610e3d9061451e565b610d47565b94505050509192500154903880808080610d4f565b606484604051907f08c379a00000000000000000000000000000000000000000000000000000000082526004820152601960248201527f416c726561647920766f7465642061732064656c6567617465000000000000006044820152fd5b610ec28186163314614a56565b610d00565b50346104b357806003193601126104b357602073ffffffffffffffffffffffffffffffffffffffff60105416604051908152f35b50346104b35760206003193601126104b35761067d6004356152d8565b50346104b357610f2736614392565b92918252600f60205260408220908252602052604081209081548310156104b35760a0610f548484614483565b508054906001810154906002810154600460ff6003840154169201549260405194855260208501526040840152151560608301526080820152f35b82346104b357604090610fa136613f5f565b908252600c6020528282209082526020522090610fbd826140c8565b91600181015490600281015490600381015460048201549073ffffffffffffffffffffffffffffffffffffffff60066005850154940154169361100a60405198888a998a528901906141b0565b95602088015260408701526060860152608085015260a084015260c08301520390f35b82346104b35760a06003193601126104b3576004356024356044359160643590608435928315158094036111c75761106482614966565b61106e8183615097565b6110788582614e59565b50821561119657818652600f602052604086208187526020526040862090604051926110a384614051565b83526020830190815260408301868152606084019186835260808501938685528054906801000000000000000082101561118257906110e791600182018155614483565b95909561116f579260049260409795927fefbf97b6b2de004cd3e8b4af6b867bf332de6df57c2447d9b5c5a00abaec5d1f999795518655516001860155516002850155600384019051151560ff7fffffffffffffffffffffffffffffffffffffffffffffffffffffffffffffff0083541691161790555191015582519182526020820152a280f35b60248a634e487b7160e01b815280600452fd5b60248b634e487b7160e01b81526041600452fd5b602483604051907f9c4b8def0000000000000000000000000000000000000000000000000000000082526004820152fd5b8580fd5b82346104b35760206003193601126104b357600435815260066020526040812060058101544210159081611261575b50156112035780f35b60646040517f08c379a000000000000000000000000000000000000000000000000000000000815260206004820152601360248201527f50485f566f74696e674e6f74416c6c6f776564000000000000000000000000006044820152fd5b600791500154421115826111fa565b82346104b35760206003193601126104b35760406020916004358152600d83522054604051908152f35b82346104b357806003193601126104b35733815260016020908082528060408420019060405191829485928583549586815201928252858220915b868682106113035785906112eb828703836140a5565b6112ff6040519282849384528301906143ac565b0390f35b83548552889550909301929181019181016112d5565b82346104b35760206003193601126104b3576020610c89600435614791565b82346104b3576020806003193601126108de576040516004359161135b8261406d565b601e82527f6265636f6d654d656d6265724f6647726f75702063616c6c65642062793a000081830152604051918480846113c6858201947f319af3330000000000000000000000000000000000000000000000000000000086526040602484015260648301906141b0565b33604483015203946113e0601f19968781018352826140a5565b516a636f6e736f6c652e6c6f6793845afa50338552600192838352604086208587528352858060ff6040822054166040519061141b82614089565b602882527f4973206d73672e73656e64657220616c72656164792061206d656d626572206f878301527f662067726f75703f00000000000000000000000000000000000000000000000060408301526114c760405180926114ad8a8301957fca7733b10000000000000000000000000000000000000000000000000000000087526060602485015260848401906141b0565b908c604484015215156064830152038681018352826140a5565b5190855afa5033865283835260408620858752835260ff6040872054166116445733865283835260408620858752835260408620847fffffffffffffffffffffffffffffffffffffffffffffffffffffffffffffff0082541617905533865283835283604087200180549068010000000000000000821015611630579287926115948861157c857fa121fcf8672c373401321b1314e9edcf4a552f09280f538a7b201964d54e324799988b89980181556145dc565b90919060001983549160031b92831b921b1916179055565b604051906115a18261406d565b601a82527f4164646564206d73672e73656e64657220746f2067726f75703a0000000000008683015261161f604051918261160d898201957fb60e72cc0000000000000000000000000000000000000000000000000000000087526040602484015260648301906141b0565b8c6044830152039081018352826140a5565b51915afa506040519283523392a380f35b602488634e487b7160e01b81526041600452fd5b6040517f14a754c500000000000000000000000000000000000000000000000000000000815260048101869052336024820152604490fd5b82346104b35761168b36613f5f565b919081526002602052604081209081548310156104b35760806116ae8484614483565b5073ffffffffffffffffffffffffffffffffffffffff815416906001810154906004600282015491015491604051938452602084015260408301526060820152f35b82346104b35760206003193601126104b35760409060043581526006602052209061171a826143e0565b9161172760088201614448565b90600b600a8201549101549061177a61174a6040519686889788528701906142c3565b9360208601906060809160ff81511684526020810151151560208501526040810151151560408501520151910152565b60a084015260c08301520390f35b82346104b3576112ff6117a361179d36613f5f565b90614ef5565b60405191829160208352602083019061432a565b82346104b3576020806003193601126108de5773ffffffffffffffffffffffffffffffffffffffff6117e76141d5565b16825260018082528060408420019060405191829485928583549586815201928252858220915b868682106118245785906112eb828703836140a5565b835485528895509093019291810191810161180e565b82346104b35761185461184c36613f5f565b809291615097565b8152602090600e82526040812080549161186d83614543565b9261187b60405194856140a5565b8084528484018093835285832083915b8383106119345750505050604051928484019085855251809152604084019460408260051b8601019392955b8287106118c45785850386f35b909192938280611924837fffffffffffffffffffffffffffffffffffffffffffffffffffffffffffffffc08a60019603018652885180518252838101518483015260408101516040830152606080910151916080809282015201906141b0565b96019201960195929190926118b7565b60048860019260409a99979a5161194a81614035565b8554815284860154838201526002860154604082015261196c600387016140c8565b60608201528152019201920191909693959661188b565b82346104b35760206003193601126104b3576040906004358152600660205220600881015460ff8160101c1615611a2b5760081c60ff166119cd5760096020910154604051908152f35b60646040517f08c379a000000000000000000000000000000000000000000000000000000000815260206004820152601c60248201527f526573756c742069732073746f726564206f6e20457468657265756d000000006044820152fd5b60646040517f08c379a000000000000000000000000000000000000000000000000000000000815260206004820152601560248201527f506f6c6c206973206e6f742066696e616c697a656400000000000000000000006044820152fd5b82346104b35760406003193601126104b35760ff6040602092611aaa61421b565b60043582526008855273ffffffffffffffffffffffffffffffffffffffff8383209116825284522054166040519015158152f35b82346104b357806003193601126104b3576020600954604051908152f35b82346104b357806003193601126104b35773ffffffffffffffffffffffffffffffffffffffff6020915416604051908152f35b82346104b35760206003193601126104b35760ff604060209233815260018452818120600435825284522054166040519015158152f35b82346104b35760206003193601126104b35773ffffffffffffffffffffffffffffffffffffffff611b956141d5565b611b9d61449f565b167fffffffffffffffffffffffff0000000000000000000000000000000000000000600554161760055580f35b82346104b35760206003193601126104b35761067d611be761424e565b6149b2565b82346104b35760206003193601126104b35760406020916004358152600383522054604051908152f35b82346104b35760806003193601126104b35761067d611c3361423e565b606435903390602435600435614b85565b82346104b357806003193601126104b357611c5d61449f565b8073ffffffffffffffffffffffffffffffffffffffff81547fffffffffffffffffffffffff000000000000000000000000000000000000000081168355167f8be0079c531659141344cd1fd0a4f28419497f9722a3daafe3b4186f6b6457e08280a380f35b82346104b35760606003193601126104b3576040602091611ce161421b565b6004358252600b845273ffffffffffffffffffffffffffffffffffffffff838320911682528352818120604435825283522054604051908152f35b82346104b35760406003193601126104b357611d3661424e565b6024358252600a60205260ff80604084205416911690808211611d57578280f35b60449250604051917f4116861400000000000000000000000000000000000000000000000000000000835260048301526024820152fd5b82346104b3576020806003193601126108de57600435808352600682526040832091611dbf600a8401541515614abb565b6008830180549360ff8560101c16611f5a5760ff60099282620100007fffffffffffffffffffffffffffffffffffffffffffffffffffffffffff00ffff60078b96015499611e0f8b421015614b20565b161780925586600b82015498611e528a61078f611e2b85614dc2565b6040519485938d850197889290916080949284526020840152604083015260608201520190565b519020940184905560081c1615611f2757507f0fc1ee95699e389b4bff56dd8901eca811b418078b0a6d6263245e5a8c605655604084928151908152600185820152a2835b838110611ea5575050505080f35b8080847f69a038c2c7531229e0a635e8b0f8235de5e228f713f86381edc80202143432626040611ed8611f229684614ef5565b84847f88406f868258046b5864c83a8b2e3e0599ffac962aa1abd029f28741e8fcd99c8460a08c860151950194855182519182528d820152a35181519033825288820152a361451e565b611e97565b7f0fc1ee95699e389b4bff56dd8901eca811b418078b0a6d6263245e5a8c6056559394506040928351928352820152a280f35b606483604051907f08c379a00000000000000000000000000000000000000000000000000000000082526004820152601960248201527f506f6c6c20697320616c72656164792066696e616c697a6564000000000000006044820152fd5b82346104b35760406003193601126104b3576020611fdf611fd761421b565b60043561489e565b604051908152f35b82346104b3576020806003193601126108de5760043590338352600180825260408420838552825260ff6040852054161561220c573384528082526040842081015484805b8282106121d2575b156121a157908260001992838301928311915b6120f8575b505050338552818352816040862001805480156120e45782019161207083836145dc565b909182549160031b1b19169055553384528152604083208284528152604083207fffffffffffffffffffffffffffffffffffffffffffffffffffffffffffffff0081541690557fa121fcf8672c373401321b1314e9edcf4a552f09280f538a7b201964d54e3247604051918483523392a380f35b602487634e487b7160e01b81526031600452fd5b8161218d578281101561218857338852848652846040892001858201908183116121745791612167878961214a84838f60409061213b61216c9a849e9d9c6145dc565b979054963383525220016145dc565b91909260031b1c9060001983549160031b92831b921b1916179055565b61451e565b909192612047565b60248a634e487b7160e01b81526011600452fd5b61204c565b602488634e487b7160e01b81526011600452fd5b602485604051907f955cac160000000000000000000000000000000000000000000000000000000082526004820152fd5b90338752838552856121e9828660408b20016145dc565b90549060031b1c14612204576121fe9061451e565b9061202c565b905082612034565b6040517f7d176a2b00000000000000000000000000000000000000000000000000000000815260048101849052336024820152604490fd5b82346104b357602090816003193601126104b357600435612265338261472a565b6124ba57338252600180845260408320828452845260ff6040842054161561248257818352600384526040832061229c815461451e565b90556040519367ffffffffffffffff908086018281118782101761246e5760405284865283855260038152604085205492604051966122da88614051565b33885282880194868652604089019688885260608a0192835260808a01918252885260028452604088208054906801000000000000000082101561245a5790612327918582018155614483565b9190916124475773ffffffffffffffffffffffffffffffffffffffff95868b51167fffffffffffffffffffffffff0000000000000000000000000000000000000000845416178355875185840155885160028401556003830184518051928311610bf55796809896959761239b84846145a3565b01908b52878b208b5b83811061243457505050509883916004999a51998a9101555116945195519251926040519460408601918652604081870152845180925280606087019501938a905b83821061241d5750505050505090807fb5977a248b20510642da018e687e9ba90beb459651acf6b82b232aeab1aac86e920390a480f35b8551811687529582019594820194908401906123e6565b82518816828201559189019186016123a4565b602489634e487b7160e01b815280600452fd5b60248a634e487b7160e01b81526041600452fd5b602486634e487b7160e01b81526041600452fd5b6040517ff93f942400000000000000000000000000000000000000000000000000000000815260048101839052336024820152604490fd5b6040517f86200d670000000000000000000000000000000000000000000000000000000081526004810191909152336024820152604490fd5b82346104b3576020806003193601126108de579060043561251381614966565b808252600d8352604082205461252881614543565b9061253660405192836140a5565b808252601f1961254582614543565b01845b8181106126db57505061255a8161455b565b906125648161455b565b93855b8281106126125750505060405194859460608601606087528451809152608087018360808360051b8a0101960192905b8282106125c357888703858a015288806112ff8a6125b58b8b6143ac565b9083820360408501526143ac565b9193806125ff887fffffffffffffffffffffffffffffffffffffffffffffffffffffffffffffff80600195979b9c849a9b030186528a516141b0565b9801920192018897969594939192612597565b6126d0908288999596979852600c855260408920818a5285526040892060405161263b81613fe6565b612644826140c8565b808252600183015491888101928352600284015460408201526003840154606082015260c073ffffffffffffffffffffffffffffffffffffffff600660048701549660808501978852600581015460a08601520154169101526126a7848b61469d565b526126b2838a61469d565b50516126be838961469d565b52516126ca828a61469d565b5261451e565b969594939296612567565b60608482018801528601612548565b82346104b357612719906126fd36614392565b61270983959293614966565b6127138386615097565b82614e59565b50828252602092600f845260408320828452845260408320541561283c5782939252600f825260408320908352815260408220805461275781614543565b9061276560405192836140a5565b8082528382018093865284862086915b8383106127e357505050506040519280840191818552518092526040840192945b8281106127a35784840385f35b855180518552808301518584015260408082015190860152606080820151151590860152608090810151908501529481019460a090930192600101612796565b60058760019260409a9997989a516127fa81614051565b8554815284860154838201526002860154604082015260ff60038701541615156060820152600486015460808201528152019201920191909694939596612775565b606484604051907f08c379a000000000000000000000000000000000000000000000000000000000825280600483015260248201527f4e6f206265747320706c6163656420666f7220746869732070726f706f73616c6044820152fd5b82346104b3576020806003193601126108de57906004356128b981614966565b808252600d835260408220546128ce81614543565b916128dc60405193846140a5565b818352601f196128eb83614543565b01845b818110612a22575050835b82811061297d5750505060405191838301848452825180915260408401948060408360051b870101940192955b8287106129335785850386f35b90919293828061296d837fffffffffffffffffffffffffffffffffffffffffffffffffffffffffffffffc08a60019603018652885161432a565b9601920196019592919092612926565b612a1a908286979652600c86526040872081885286526040872073ffffffffffffffffffffffffffffffffffffffff6006604051926129bb84613fe6565b6129c4816140c8565b845260018101548a850152600281015460408501526003810154606085015260048101546080850152600581015460a085015201541660c0820152612a09828761469d565b52612a14818661469d565b5061451e565b9493946128f9565b95809596612a2e614ebc565b828288010152019594956128ee565b82346104b357612a4c36613f5f565b90612a5681614966565b612a608282615097565b8083526020600b81526040842033855281526040842083855281526040842054612b0957818452600781526040842033855281526040842060017fffffffffffffffffffffffffffffffffffffffffffffffffffffffffffffff00825416179055818452600b815260408420338552815260408420908385525260016040842055337fb4cfecf70861b7b150d8337780d34fb4cbc2114b5fb1fe51a5c5fca1849f72748480a480f35b6040517fa17d63eb00000000000000000000000000000000000000000000000000000000815260048101839052336024820152604490fd5b82346104b35760606003193601126104b3576004356024359060443573ffffffffffffffffffffffffffffffffffffffff808216809203612d1d57600554163303612c9957612b8f82614966565b612b998383615097565b81845260206007815260408520338652815260ff604086205416612c3b57828552600781526040852082865281526040852060017fffffffffffffffffffffffffffffffffffffffffffffffffffffffffffffff00825416179055828552600b8152604085208286528152604085209084865252600160408520557fb4cfecf70861b7b150d8337780d34fb4cbc2114b5fb1fe51a5c5fca1849f72748480a480f35b606490604051907f08c379a00000000000000000000000000000000000000000000000000000000082526004820152600d60248201527f416c726561647920766f746564000000000000000000000000000000000000006044820152fd5b60846040517f08c379a000000000000000000000000000000000000000000000000000000000815260206004820152602160248201527f4f6e6c79204d657461566f74696e6720636f6e74726163742063616e2063616c60448201527f6c000000000000000000000000000000000000000000000000000000000000006064820152fd5b8480fd5b82346104b35760406003193601126104b357612d3b6141d5565b6024803591612d4a818461472a565b156130395733845260019260209184835260408620828752835260ff604087205416156124825773ffffffffffffffffffffffffffffffffffffffff908181169081331461300a57612d9c81856147d7565b612fba5750948094958388526002908186526040892089948a945b612e54575b5050505050612dca906145f4565b604051906040820182811067ffffffffffffffff821117612e41576040528152600482820192428452338752526040852080549068010000000000000000821015612e415790612e1e91858201815561465a565b949094612e3057505183555191015580f35b85634e487b7160e01b815280600452fd5b8587634e487b7160e01b81526041600452fd5b81999796959499548a1015612faf578281612e6f8c85614483565b50541614612e8f57612e84899a99989961451e565b949596979899612db7565b919350919394959784612ea28285614483565b5001612eae815461451e565b9055612eba8184614483565b5090600380920180549068010000000000000000821015612f9c5791612eef828a9795948d612f15959b9a989b0181556145dc565b815490851b908a33831b921b19161790558a96612f0c8286614483565b50015493614483565b5001946040519160408301908352604089840152865480915260608301968c52888c20918c905b8b8b848410612f8157505050505050937f666c49d8439089d417a99690492068a6e44b8f5ee919a4e15f72d0185e60344085612dca9633930390a49087808080612dbc565b855483168b52909901988a9750938401939190910190612f3c565b8b8d634e487b7160e01b81526041600452fd5b849596979950612dbc565b6040517f86200d670000000000000000000000000000000000000000000000000000000081526004810185905273ffffffffffffffffffffffffffffffffffffffff919091166024820152604490fd5b856040517ff9e33625000000000000000000000000000000000000000000000000000000008152336004820152fd5b6040517f0775aaf70000000000000000000000000000000000000000000000000000000081526004810184905273ffffffffffffffffffffffffffffffffffffffff919091166024820152604490fd5b82346104b35760406003193601126104b3576020610c896130a861421b565b60043561472a565b82346104b3576020806003193601126108de57826040600435938151946130d686614035565b8183516130e281614018565b60609781898093528289820152838782015283838201528360808201528360a08201528360c082015283888201528152855161311d81614035565b838152838982015283878201528383820152888201528286820152015261314381614966565b81526006845220926040519361315885614035565b613161816143e0565b85526131dd6131ac61317560088401614448565b95808801968752600b600a8501549460408a019586520154948801948552604051988998828a5251918901526101008801906142c3565b945160408701906060809160ff81511684526020810151151560208501526040810151151560408501520151910152565b5160c085015251908301520390f35b9050346108de576101406003193601126108de5760043567ffffffffffffffff81116136c9576132209036906004016142a5565b60243567ffffffffffffffff8111610c09576132409036906004016142a5565b6101043560ff81168103612d1d57610124359384151585036111c75761326461449f565b61326d826149b2565b61327860095461451e565b928360095583875260066020526040872093600a8501556040519061329c82614018565b858252602082015260443560408201526064356060820152608435608082015260a43560a082015260c43560c082015260e43582820152845167ffffffffffffffff8111611630576132ee8554613fac565b601f8111613699575b50806020601f821160011461363557899161362a575b506000198260011b9260031b1c19161784555b602081015180519067ffffffffffffffff8211610bce576133446001870154613fac565b601f81116135f7575b50602090601f831160011461355f5792827fc3f3a2aeae109760f4c45b2167b367f100f63040a6f2f0c22085ae2d4be548e7989693600a96936134cf99968d92613554575b50506000198260011b9260031b1c19161760018501555b60408101516002850155606081015160038501556080810151600485015560a0810151600585015560c08101516006850155015160078301558760606040516133f181614035565b60ff9390931680845289151560208501819052604085018490529190930191909152600883810180547fffffffffffffffffffffffffffffffffffffffffffffffffffffffffffff00001690931791901b61ff00161781557fffffffffffffffffffffffffffffffffffffffffffffffffffffffffffffff00908054907fffffffffffffffffffffffffffffffffffffffffffffffffffffffffff00ffff808316825560098501918b83556009548c528660205260408c20948186036134dd575b5050505050500154936040519283926040845260408401906141b0565b90151560208301520390a280f35b60ff600195169086541617855561352b60ff825460081c1686907fffffffffffffffffffffffffffffffffffffffffffffffffffffffffffff00ff61ff00835492151560081b169116179055565b549062ff000060ff86549360101c16151560101b169116178355549101553880808080806134b2565b015190503880613392565b90600187018a5260208a20918a5b601f19851681106135df575083600a96936134cf99969360019383601f197fc3f3a2aeae109760f4c45b2167b367f100f63040a6f2f0c22085ae2d4be548e79e9c9916106135c6575b505050811b0160018501556133a9565b015160001960f88460031b161c191690553880806135b6565b9192602060018192868501518155019401920161356d565b61362490600188018b5260208b20601f850160051c81019160208610610bc457601f0160051c019061458c565b3861334d565b90508601513861330d565b91508589526020892089925b601f1983168410613681576001935082601f19811610613668575b5050811b018455613320565b88015160001960f88460031b161c19169055388061365c565b88810151825560209384019360019092019101613641565b6136c390868a5260208a20601f840160051c81019160208510610bc457601f0160051c019061458c565b386132f7565b8280fd5b82346104b357806003193601126104b357602073ffffffffffffffffffffffffffffffffffffffff60115416604051908152f35b82346104b35760a06003193601126104b35761371b61423e565b6137236141f8565b9073ffffffffffffffffffffffffffffffffffffffff6011541633036137565761067d9160843591602435600435614b85565b60646040517f08c379a000000000000000000000000000000000000000000000000000000000815260206004820152601460248201527f505f556e617574686f72697a65644d65746154780000000000000000000000006044820152fd5b82346104b35760206003193601126104b35773ffffffffffffffffffffffffffffffffffffffff6137e36141d5565b6137eb61449f565b167fffffffffffffffffffffffff0000000000000000000000000000000000000000601054161760105580f35b82346104b35760206003193601126104b35773ffffffffffffffffffffffffffffffffffffffff6138476141d5565b61384f61449f565b167fffffffffffffffffffffffff0000000000000000000000000000000000000000601154161760115580f35b82346104b35760406003193601126104b35767ffffffffffffffff6024358181116136c957366023820112156136c957818160040135116136c9573660248260040135830101116136c9576138d2600435614966565b6138dd6004356152d8565b6004358352600d60205260408320918254926138f88461451e565b90556040519061390782613fe6565b6139193684600401356024860161425e565b82528460208301528360408301528460608301528460808301528460a08301523360c08301526004358552600c60205260408520848652602052604085209082518051918211613b3f5761396d8354613fac565b601f8111613b0f575b50602090601f8311600114613a8e57928260c09360069373ffffffffffffffffffffffffffffffffffffffff968b92613a83575b50506000198260011b9260031b1c19161781555b6020850151600182015560408501516002820155606085015160038201556080850151600482015560a0850151600582015501920151167fffffffffffffffffffffffff00000000000000000000000000000000000000008254161790557fbb878f2a2e892d9a3562cba951f66485d18cf663715d59785bd1eafe3697a8c360405160208152826004013560208201528260040135602484016040830137846040846004013583010152604081601f19601f600435966004013501168101030190a380f35b015190508a806139aa565b908388526020882091885b601f1985168110613af757508360069373ffffffffffffffffffffffffffffffffffffffff969360019383601f1960c0991610613ade575b505050811b0181556139be565b015160001960f88460031b161c191690558a8080613ad1565b91926020600181928685015181550194019201613a99565b613b399084895260208920601f850160051c81019160208610610bc457601f0160051c019061458c565b87613976565b602487634e487b7160e01b81526041600452fd5b82346104b3576020806003193601126108de57600435613b73338261472a565b15613eb757808352600291828152604084208493606091865b815480821015613ea857613ba08284614483565b505473ffffffffffffffffffffffffffffffffffffffff9081163314613bd0575050613bcb9061451e565b613b8c565b9091939495969750613be28484614483565b509360038095015480613e63575b5060001992838101908111613e4f57613c0c613c149186614483565b509185614483565b929092613e3c57818303613ddf575b50505081548015613dcb570191613c3a8383614483565b919091612447576004828a9283613c9b98979695558360019781898501558301558101805484825580613db2575b505001555584337f4a49253305f0d63099f6b61a9d355ce9fd607a6b536918966a9b09cd46b4da8b8880a39291926145f4565b83915b8051831015613dae5773ffffffffffffffffffffffffffffffffffffffff613cc6848361469d565b51168552600482526040852091855b835480821015613da05786613cea838761465a565b505414613d005750613cfb9061451e565b613cd5565b90600019959394929591828101908111613d8c57613d21613d29918561465a565b50918461465a565b91909161244757808203613d78575b505081548015613d6457613d5d9392910190613d576103fc838361465a565b5561451e565b9190613c9e565b602488634e487b7160e01b81526031600452fd5b805482556001809101549101558780613d38565b602489634e487b7160e01b81526011600452fd5b505092613d5d91925061451e565b8480f35b613dc49185528a85209081019061458c565b8b80613c68565b602489634e487b7160e01b81526031600452fd5b8160049291839254167fffffffffffffffffffffffff0000000000000000000000000000000000000000855416178455600180820154908501558781015488850155613e2f8782018886016146b1565b0154910155888080613c23565b60248b634e487b7160e01b815280600452fd5b60248b634e487b7160e01b81526011600452fd5b9650613e6e8761455b565b968a5b818110613e7e5750613bf0565b8084613e92613ea3938a61036b888c614483565b9054908a1b1c166126ca828c61469d565b613e71565b505050509192613c9b906145f4565b6040517fafae6b560000000000000000000000000000000000000000000000000000000081526004810191909152336024820152604490fd5b82346104b357613eff36613f5f565b908252600e6020526040822080548210156136c957613f1e9250613f7a565b5080546112ff600183015492613f3b6003600283015492016140c8565b906040519485948552602085015260408401526080606084015260808301906141b0565b6003196040910112613f75576004359060243590565b600080fd5b8054821015613f965760005260206000209060021b0190600090565b634e487b7160e01b600052603260045260246000fd5b90600182811c92168015613fdc575b6020831014613fc657565b634e487b7160e01b600052602260045260246000fd5b91607f1691613fbb565b60e0810190811067ffffffffffffffff82111761400257604052565b634e487b7160e01b600052604160045260246000fd5b610100810190811067ffffffffffffffff82111761400257604052565b6080810190811067ffffffffffffffff82111761400257604052565b60a0810190811067ffffffffffffffff82111761400257604052565b6040810190811067ffffffffffffffff82111761400257604052565b6060810190811067ffffffffffffffff82111761400257604052565b90601f601f19910116810190811067ffffffffffffffff82111761400257604052565b90604051918260008254926140dc84613fac565b90818452600194858116908160001461414b5750600114614108575b5050614106925003836140a5565b565b9093915060005260209081600020936000915b818310614133575050614106935082010138806140f8565b8554888401850152948501948794509183019161411b565b90506141069550602093507fffffffffffffffffffffffffffffffffffffffffffffffffffffffffffffff0091501682840152151560051b82010138806140f8565b60005b8381106141a05750506000910152565b8181015183820152602001614190565b90601f19601f6020936141ce8151809281875287808801910161418d565b0116010190565b6004359073ffffffffffffffffffffffffffffffffffffffff82168203613f7557565b6064359073ffffffffffffffffffffffffffffffffffffffff82168203613f7557565b6024359073ffffffffffffffffffffffffffffffffffffffff82168203613f7557565b6044359060ff82168203613f7557565b6004359060ff82168203613f7557565b92919267ffffffffffffffff821161400257604051916142886020601f19601f84011601846140a5565b829481845281830111613f75578281602093846000960137010152565b9080601f83011215613f75578160206142c09335910161425e565b90565b9060e0806142ef6142dd85516101008087528601906141b0565b602086015185820360208701526141b0565b9360408101516040850152606081015160608501526080810151608085015260a081015160a085015260c081015160c0850152015191015290565b9060c073ffffffffffffffffffffffffffffffffffffffff81614356855160e0865260e08601906141b0565b946020810151602086015260408101516040860152606081015160608601526080810151608086015260a081015160a086015201511691015290565b6003196060910112613f7557600435906024359060443590565b90815180825260208080930193019160005b8281106143cc575050505090565b8351855293810193928101926001016143be565b906040516143ed81614018565b60e0600782946143fc816140c8565b845261440a600182016140c8565b6020850152600281015460408501526003810154606085015260048101546080850152600581015460a0850152600681015460c08501520154910152565b9060405161445581614035565b60606001829460ff81548181168652818160081c161515602087015260101c16151560408501520154910152565b8054821015613f96576000526005602060002091020190600090565b73ffffffffffffffffffffffffffffffffffffffff6000541633036144c057565b60646040517f08c379a000000000000000000000000000000000000000000000000000000000815260206004820152602060248201527f4f776e61626c653a2063616c6c6572206973206e6f7420746865206f776e65726044820152fd5b600019811461452d5760010190565b634e487b7160e01b600052601160045260246000fd5b67ffffffffffffffff81116140025760051b60200190565b9061456582614543565b61457260405191826140a5565b828152601f196145828294614543565b0190602036910137565b818110614597575050565b6000815560010161458c565b90680100000000000000008111614002578154908083558181106145c657505050565b614106926000526020600020918201910161458c565b8054821015613f965760005260206000200190600090565b156145fb57565b6040517f08c379a000000000000000000000000000000000000000000000000000000000815260206004820152601260248201527f44656c6567617465206e6f7420666f756e6400000000000000000000000000006044820152606490fd5b8054821015613f965760005260206000209060011b0190600090565b906146875760018160008093550155565b634e487b7160e01b600052600060045260246000fd5b8051821015613f965760209160051b010190565b8181146147265781549167ffffffffffffffff8311614002576146d483836145a3565b60005260206000209060005260206000208154916000925b8484106146fa575050505050565b600173ffffffffffffffffffffffffffffffffffffffff819216920193845492818501550192906146ec565b5050565b60005260026020526040600020906000918054925b83811061474f5750505050600090565b6147598183614483565b505473ffffffffffffffffffffffffffffffffffffffff848116911614614788576147839061451e565b61473f565b50505050600190565b3360005260046020526040600020906000918054925b8381106147b75750505050600090565b826147c2828461465a565b505414614788576147d29061451e565b6147a7565b600090815260026020526040812080549192835b8381106147f9575050505090565b6148038184614483565b5073ffffffffffffffffffffffffffffffffffffffff8091541681841614614835575b506148309061451e565b6147eb565b9293919094805b6148468787614483565b5060038091015482101561488d5785614864838361036b8c8c614483565b929092339354911b1c16146148815761487c9061451e565b61483c565b50505050505050600190565b505094614830919294935090614826565b60005260028060205260406000206000928154935b848110614919576040517f08c379a000000000000000000000000000000000000000000000000000000000815260206004820152601260248201527f44656c6567617465206e6f7420666f756e6400000000000000000000000000006044820152606490fd5b6149238184614483565b505473ffffffffffffffffffffffffffffffffffffffff8381169116146149525761494d9061451e565b6148b3565b919050614960929350614483565b50015490565b801580156149a7575b6149765750565b602490604051907f8f04c0d60000000000000000000000000000000000000000000000000000000082526004820152fd5b50600954811161496f565b60ff16606481116149c05750565b602490604051907f7e3580120000000000000000000000000000000000000000000000000000000082526004820152fd5b156149f857565b60646040517f08c379a000000000000000000000000000000000000000000000000000000000815260206004820152600d60248201527f496e76616c69642073636f7265000000000000000000000000000000000000006044820152fd5b15614a5d57565b60646040517f08c379a000000000000000000000000000000000000000000000000000000000815260206004820152601360248201527f556e617574686f72697a65642063616c6c6572000000000000000000000000006044820152fd5b15614ac257565b60646040517f08c379a000000000000000000000000000000000000000000000000000000000815260206004820152601360248201527f506f6c6c20646f6573206e6f74206578697374000000000000000000000000006044820152fd5b15614b2757565b60646040517f08c379a000000000000000000000000000000000000000000000000000000000815260206004820152601660248201527f506f6c6c20686173206e6f7420656e64656420796574000000000000000000006044820152fd5b9160ff909594919395614b9784614966565b614ba18585615097565b16614bad8115156149f1565b73ffffffffffffffffffffffffffffffffffffffff918287169460009786895260209460018652604093848b20818c52875260ff858c20541615614d715750601154163303614d61575b85895260078552828920878a52855260ff838a205416614d125750848852600b8452818820868952845281882081895284528282892055614c388186615097565b848852600c84528188208189528452818820600181019081549160018301809311613e4f5784938360047f33962b16af4b0ee7c15dd4425a99f5094ab1da2400e3ea7a3d4b4f24fda9b883947fa5876137634fc61be6a6224d5f4a2d0926145388c51a133c03cc00f7b66e0e3c9b9c9d9e96608095550190614cbb898354614f8d565b8092558651928c84528a840152868301526060820152a18681526007855281812088825285522060017fffffffffffffffffffffffffffffffffffffffffffffffffffffffffffffff0082541617905551908152a3565b82517fa17d63eb0000000000000000000000000000000000000000000000000000000081526004810187905273ffffffffffffffffffffffffffffffffffffffff919091166024820152604490fd5b614d6c873314614a56565b614bf7565b84517f7d176a2b000000000000000000000000000000000000000000000000000000008152600481019190915273ffffffffffffffffffffffffffffffffffffffff92909216602483015250604490fd5b6060916000835b8360005260209060068252604091600b836000200154841015614e48576080614e429392614e3c92614dfb878a614ef5565b94808601519560a0838201519101519180519785614e228a9751809288808b01910161418d565b8601948501528301528a82015203888101845201826140a5565b9161451e565b90614dc9565b509350505091506020815191012090565b90600090828252600e6020908082526040918285205495855b878110614e8457505050505050905090565b818752838352856002614e9983888b20613f7a565b50015414614eaf57614eaa9061451e565b614e72565b5050505050505050600190565b60405190614ec982613fe6565b816060815260c06000918260208201528260408201528260608201528260808201528260a08201520152565b614efd614ebc565b50614f088282615097565b600052600c602052604060002090600052602052604060002073ffffffffffffffffffffffffffffffffffffffff600660405192614f4584613fe6565b614f4e816140c8565b845260018101546020850152600281015460408501526003810154606085015260048101546080850152600581015460a085015201541660c082015290565b9190820180921161452d57565b909192614fa78383615097565b831580159061508e575b15615030577f33962b16af4b0ee7c15dd4425a99f5094ab1da2400e3ea7a3d4b4f24fda9b8839360809383600052600c6020526040600020816000526020526150156004604060002061500960018201958654614f8d565b80955501938454614f8d565b809355604051938452602084015260408301526060820152a1565b60646040517f08c379a000000000000000000000000000000000000000000000000000000000815260206004820152601460248201527f4e6f206368616e67657320746f207570646174650000000000000000000000006044820152fd5b50801515614fb1565b6151a5916040908151926150aa84614089565b602584526020907f436865636b696e672070726f706f73616c206578697374656e63653a20706f6c828601527f6c4964203d0000000000000000000000000000000000000000000000000000008486015283516151068161406d565b600c81527f70726f706f73616c4964203d000000000000000000000000000000000000000083820152845196879161516f858401987fc67ea9d1000000000000000000000000000000000000000000000000000000008a526080602486015260a48501906141b0565b908460448501527fffffffffffffffffffffffffffffffffffffffffffffffffffffffffffffffdc8483030160648501526141b0565b84608483015203926151bf601f19948581018952886140a5565b6000808098516a636f6e736f6c652e6c6f6798895afa50818752600c8352848720818852835273ffffffffffffffffffffffffffffffffffffffff6006868920015416156152a257926152849261529b92869589989751966152208861406d565b601088527f50726f706f73616c206578697374733a0000000000000000000000000000000084890152519586938401977fca47c4eb0000000000000000000000000000000000000000000000000000000089526060602486015260848501906141b0565b9160448401526064830152039081018352826140a5565b51915afa50565b604492508451917f743c644900000000000000000000000000000000000000000000000000000000835260048301526024820152fd5b806000526006602052600460406000200154428111156152f6575050565b60649250604051917f1206ebfa00000000000000000000000000000000000000000000000000000000835260048301526024820152426044820152fdfea26469706673582212208dbb807551ee201c467fabbfc39682c6b8bbec6e1bcd68f22268aec0d8159d9264736f6c63430008120033","linkReferences":{}},"methodIdentifiers":{"addProposal(uint256,string)":"051097ef","addressIsDelegate(uint256,address)":"21bcf082","becomeDelegate(uint256)":"395e0139","becomeMemberOfGroup(uint256)":"af3157c0","bridgeContract()":"cd596583","castVote(uint256,uint256)":"2c0a3f89","castVoteMeta(uint256,uint256,uint8,address,uint256)":"0df06b3d","createPoll(string,string,uint256,uint256,uint256,uint256,uint256,uint256,uint8,bool)":"15a4c269","createPrediction(uint256,uint256,string)":"e424938c","delegateToDelegate(address,uint256)":"2926321c","finalizeAndBridge(uint256)":"e7623bde","finalizePoll(uint256)":"56597e4f","getDelegateCount(uint256)":"7c9627ec","getDelegateVoteCount(uint256,address)":"548407b0","getGroupsAddressIsMemberIn(address)":"aa7265cd","getGroupsUserIsMemberIn()":"b28bb34c","getPoll(uint256)":"1a8cbcaa","getPollResults(uint256)":"33b4097b","getPredictionBets(uint256,uint256,uint256)":"3128fcb6","getPredictions(uint256,uint256)":"9bec02b1","getProposal(uint256,uint256)":"aba21009","getProposals(uint256)":"2c72fdfc","getResult(uint256)":"995e4339","groupDelegates(uint256,uint256)":"ac8ec2f9","hasDelegatedInGroup(uint256)":"b0333e0d","hasDelegatedToDelegateInGroup(uint256,address)":"d5887489","hasUserVoted(uint256,address)":"dc296ae1","hasUserVotedAsDelegate(uint256,address)":"92a0b3bd","isAddressMemberOfGroup(address,uint256)":"fa822683","isUserMemberOfGroup(uint256)":"8ad0871b","metaTxHandler()":"0f4894c0","metaVoting()":"f4b8cc42","owner()":"8da5cb5b","placePredictionBet(uint256,uint256,uint256,uint256,bool)":"c20572af","pollCount()":"9207891d","pollSettings(uint256)":"e9628ed2","polls(uint256)":"ac2f0074","predictionBets(uint256,uint256,uint256)":"c4b29d67","predictions(uint256,uint256)":"025ae4e2","proposalCount(uint256)":"b7e4eacf","proposals(uint256,uint256)":"c2cfee27","publicControlProposalEndDate(uint256)":"c63f432e","publicIsVotingOpen(uint256)":"bfc6c313","publicRequireMaxVoteScoreWithinRange(uint8)":"7dd90f7e","publicRequireVoterScoreWithinRange(uint8,uint256)":"5fded4e1","recordMetaVote(uint256,uint256,address)":"2ae84eb0","removeDelegation(address,uint256)":"fd6c914e","removeGroupMembership(uint256)":"4b30ef34","renounceOwnership()":"715018a6","resignAsDelegate(uint256)":"0457bea8","setBridgeContract(address)":"0b26cf66","setMetaTxHandler(address)":"0758efa5","setMetaVoting(address)":"84d7582c","transferOwnership(address)":"f2fde38b","updateProposalVotes(uint256,uint256,uint256,uint256)":"edb1e275","userVotes(uint256,address,uint256)":"6bd53fbb","vote(uint256,uint256,uint8,uint256)":"7c218cda","voteAsDelegate(uint256,uint256,uint8,address)":"cdd7a938"},"id":29}